{
  "_format": "hh-sol-artifact-1",
  "contractName": "Lottery",
  "sourceName": "contracts/Lottery.sol",
  "abi": [
    {
      "inputs": [],
      "stateMutability": "nonpayable",
      "type": "constructor"
    },
    {
      "inputs": [],
      "name": "enter",
      "outputs": [],
      "stateMutability": "payable",
      "type": "function"
    },
    {
      "inputs": [],
      "name": "getPlayers",
      "outputs": [
        {
          "internalType": "address[]",
          "name": "",
          "type": "address[]"
        }
      ],
      "stateMutability": "view",
      "type": "function"
    },
    {
      "inputs": [],
      "name": "manager",
      "outputs": [
        {
          "internalType": "address",
          "name": "",
          "type": "address"
        }
      ],
      "stateMutability": "view",
      "type": "function"
    },
    {
      "inputs": [],
      "name": "pickWinner",
      "outputs": [],
      "stateMutability": "nonpayable",
      "type": "function"
    },
    {
      "inputs": [
        {
          "internalType": "uint256",
          "name": "",
          "type": "uint256"
        }
      ],
      "name": "players",
      "outputs": [
        {
          "internalType": "address",
          "name": "",
          "type": "address"
        }
      ],
      "stateMutability": "view",
      "type": "function"
    },
    {
      "inputs": [],
      "name": "random",
      "outputs": [
        {
          "internalType": "uint256",
          "name": "",
          "type": "uint256"
        }
      ],
      "stateMutability": "view",
      "type": "function"
    }
  ],
  "bytecode": "0x608060405234801561001057600080fd5b50336000806101000a81548173ffffffffffffffffffffffffffffffffffffffff021916908373ffffffffffffffffffffffffffffffffffffffff160217905550610ab7806100606000396000f3fe6080604052600436106100555760003560e01c8063481c6a751461005a5780635d495aea146100855780635ec01e4d1461009c5780638b5b9ccc146100c7578063e97dcb62146100f2578063f71d96cb146100fc575b600080fd5b34801561006657600080fd5b5061006f610139565b60405161007c9190610589565b60405180910390f35b34801561009157600080fd5b5061009a61015d565b005b3480156100a857600080fd5b506100b16102ef565b6040516100be91906105bd565b60405180910390f35b3480156100d357600080fd5b506100dc610325565b6040516100e99190610696565b60405180910390f35b6100fa6103b3565b005b34801561010857600080fd5b50610123600480360381019061011e91906106e9565b610462565b6040516101309190610589565b60405180910390f35b60008054906101000a900473ffffffffffffffffffffffffffffffffffffffff1681565b60008054906101000a900473ffffffffffffffffffffffffffffffffffffffff1673ffffffffffffffffffffffffffffffffffffffff163373ffffffffffffffffffffffffffffffffffffffff16146101eb576040517f08c379a00000000000000000000000000000000000000000000000000000000081526004016101e290610799565b60405180910390fd5b60006001805490506101fb6102ef565b61020591906107e8565b90506001818154811061021b5761021a610819565b5b9060005260206000200160009054906101000a900473ffffffffffffffffffffffffffffffffffffffff1673ffffffffffffffffffffffffffffffffffffffff166108fc479081150290604051600060405180830381858888f1935050505015801561028b573d6000803e3d6000fd5b50600067ffffffffffffffff8111156102a7576102a6610848565b5b6040519080825280602002602001820160405280156102d55781602001602082028036833780820191505090505b50600190805190602001906102eb9291906104a1565b5050565b600044426001604051602001610307939291906109b6565b6040516020818303038152906040528051906020012060001c905090565b606060018054806020026020016040519081016040528092919081815260200182805480156103a957602002820191906000526020600020905b8160009054906101000a900473ffffffffffffffffffffffffffffffffffffffff1673ffffffffffffffffffffffffffffffffffffffff168152602001906001019080831161035f575b5050505050905090565b662386f26fc100003410156103fd576040517f08c379a00000000000000000000000000000000000000000000000000000000081526004016103f490610a61565b60405180910390fd5b6001339080600181540180825580915050600190039060005260206000200160009091909190916101000a81548173ffffffffffffffffffffffffffffffffffffffff021916908373ffffffffffffffffffffffffffffffffffffffff160217905550565b6001818154811061047257600080fd5b906000526020600020016000915054906101000a900473ffffffffffffffffffffffffffffffffffffffff1681565b82805482825590600052602060002090810192821561051a579160200282015b828111156105195782518260006101000a81548173ffffffffffffffffffffffffffffffffffffffff021916908373ffffffffffffffffffffffffffffffffffffffff160217905550916020019190600101906104c1565b5b509050610527919061052b565b5090565b5b8082111561054457600081600090555060010161052c565b5090565b600073ffffffffffffffffffffffffffffffffffffffff82169050919050565b600061057382610548565b9050919050565b61058381610568565b82525050565b600060208201905061059e600083018461057a565b92915050565b6000819050919050565b6105b7816105a4565b82525050565b60006020820190506105d260008301846105ae565b92915050565b600081519050919050565b600082825260208201905092915050565b6000819050602082019050919050565b61060d81610568565b82525050565b600061061f8383610604565b60208301905092915050565b6000602082019050919050565b6000610643826105d8565b61064d81856105e3565b9350610658836105f4565b8060005b838110156106895781516106708882610613565b975061067b8361062b565b92505060018101905061065c565b5085935050505092915050565b600060208201905081810360008301526106b08184610638565b905092915050565b600080fd5b6106c6816105a4565b81146106d157600080fd5b50565b6000813590506106e3816106bd565b92915050565b6000602082840312156106ff576106fe6106b8565b5b600061070d848285016106d4565b91505092915050565b600082825260208201905092915050565b7f4f6e6c79206d616e616765722063616e2063616c6c207069636b2077696e6e6560008201527f722e000000000000000000000000000000000000000000000000000000000000602082015250565b6000610783602283610716565b915061078e82610727565b604082019050919050565b600060208201905081810360008301526107b281610776565b9050919050565b7f4e487b7100000000000000000000000000000000000000000000000000000000600052601260045260246000fd5b60006107f3826105a4565b91506107fe836105a4565b92508261080e5761080d6107b9565b5b828206905092915050565b7f4e487b7100000000000000000000000000000000000000000000000000000000600052603260045260246000fd5b7f4e487b7100000000000000000000000000000000000000000000000000000000600052604160045260246000fd5b6000819050919050565b61089261088d826105a4565b610877565b82525050565b600081549050919050565b600081905092915050565b60008190508160005260206000209050919050565b6108cc81610568565b82525050565b60006108de83836108c3565b60208301905092915050565b60008160001c9050919050565b600073ffffffffffffffffffffffffffffffffffffffff82169050919050565b600061092a610925836108ea565b6108f7565b9050919050565b600061093d8254610917565b9050919050565b6000600182019050919050565b600061095c82610898565b61096681856108a3565b9350610971836108ae565b8060005b838110156109a95761098682610931565b61099088826108d2565b975061099b83610944565b925050600181019050610975565b5085935050505092915050565b60006109c28286610881565b6020820191506109d28285610881565b6020820191506109e28284610951565b9150819050949350505050565b7f4d696e696d756d20656e74727920666565202e3031206574686572207265717560008201527f697265642e000000000000000000000000000000000000000000000000000000602082015250565b6000610a4b602583610716565b9150610a56826109ef565b604082019050919050565b60006020820190508181036000830152610a7a81610a3e565b905091905056fea26469706673582212208237ae07d9bfabccad0b5ea5a669d0ccf2469cb03c968cbe85ae62121d44fe8064736f6c63430008090033",
  "linkReferences": {},
  "deployedLinkReferences": {}
}